{
  "_format": "hh-sol-artifact-1",
  "contractName": "walletwhitelist",
  "sourceName": "contracts/walletwhitelist.sol",
  "abi": [
    {
      "inputs": [
        {
          "internalType": "string",
          "name": "_email",
          "type": "string"
        }
      ],
      "name": "checkUserByEmail",
      "outputs": [
        {
          "internalType": "bool",
          "name": "",
          "type": "bool"
        }
      ],
      "stateMutability": "view",
      "type": "function"
    },
    {
      "inputs": [
        {
          "internalType": "address",
          "name": "_walletAddress",
          "type": "address"
        }
      ],
      "name": "checkUserByWallet",
      "outputs": [
        {
          "internalType": "bool",
          "name": "",
          "type": "bool"
        }
      ],
      "stateMutability": "view",
      "type": "function"
    },
    {
      "inputs": [
        {
          "internalType": "string",
          "name": "_email",
          "type": "string"
        },
        {
          "internalType": "address",
          "name": "_walletAddress",
          "type": "address"
        }
      ],
      "name": "registerUser",
      "outputs": [],
      "stateMutability": "nonpayable",
      "type": "function"
    }
  ],
  "bytecode": "0x608060405234801561001057600080fd5b506104f9806100206000396000f3fe608060405234801561001057600080fd5b50600436106100415760003560e01c80630e54b872146100465780633182e6171461005b578063fab98582146100a5575b600080fd5b61005961005436600461029c565b6100b8565b005b6100916100693660046102ea565b6001600160a01b0316600090815260208190526040902060010154600160a01b900460ff1690565b604051901515815260200160405180910390f35b6100916100b336600461030c565b610176565b604080516060810182528381526001600160a01b0383166020808301829052600183850152600091825281905291909120815181906100f790826103d4565b506020820151600191820180546040948501511515600160a01b026001600160a81b03199091166001600160a01b03909316929092179190911790559051829190610143908590610494565b90815260405190819003602001902080546001600160a01b03929092166001600160a01b03199092169190911790555050565b6000806001836040516101899190610494565b908152604051908190036020019020546001600160a01b03169050806101b25750600092915050565b6001600160a01b0316600090815260208190526040902060010154600160a01b900460ff1692915050565b634e487b7160e01b600052604160045260246000fd5b600082601f83011261020457600080fd5b813567ffffffffffffffff8082111561021f5761021f6101dd565b604051601f8301601f19908116603f01168101908282118183101715610247576102476101dd565b8160405283815286602085880101111561026057600080fd5b836020870160208301376000602085830101528094505050505092915050565b80356001600160a01b038116811461029757600080fd5b919050565b600080604083850312156102af57600080fd5b823567ffffffffffffffff8111156102c657600080fd5b6102d2858286016101f3565b9250506102e160208401610280565b90509250929050565b6000602082840312156102fc57600080fd5b61030582610280565b9392505050565b60006020828403121561031e57600080fd5b813567ffffffffffffffff81111561033557600080fd5b610341848285016101f3565b949350505050565b600181811c9082168061035d57607f821691505b60208210810361037d57634e487b7160e01b600052602260045260246000fd5b50919050565b601f8211156103cf576000816000526020600020601f850160051c810160208610156103ac5750805b601f850160051c820191505b818110156103cb578281556001016103b8565b5050505b505050565b815167ffffffffffffffff8111156103ee576103ee6101dd565b610402816103fc8454610349565b84610383565b602080601f831160018114610437576000841561041f5750858301515b600019600386901b1c1916600185901b1785556103cb565b600085815260208120601f198616915b8281101561046657888601518255948401946001909101908401610447565b50858210156104845787850151600019600388901b60f8161c191681555b5050505050600190811b01905550565b6000825160005b818110156104b5576020818601810151858301520161049b565b50600092019182525091905056fea264697066735822122080e12843d55eeb8449abecf50cc460ad099d37c73808d01b3f7cecdf90b08b0864736f6c63430008180033",
  "linkReferences": {},
  "deployedLinkReferences": {}
}